:020000040000FA
:0400000074EF02F0A7
:10014C00C58AC5881200C580C9EC00F01200C584B0
:10015C00C9EC00F01200C586C9EC00F01200C58293
:10016C00C9EC00F012001E0E936EF19E1200016E8F
:10017C0001C0C9FFC9EC00F01200B1EC00F0A6EC14
:10018C0000F0C95012009EA6CEEF00F0D0EF00F0A8
:10019C00C9EF00F09E96120094869488280EC66EC5
:1001AC00310EC86EC79CC78E9E96A19612000E6E1D
:1001BC00000E016E0D507DEC01F0010E016E0E5023
:1001CC007DEC01F01200016E9EA8EFEF00F0F1EF54
:1001DC0000F0EAEF00F09E9801C0ADFF12004F4E08
:1001EC00474E475247314732473347344735432010
:1001FC003131303000030001C280C19AC198C186F0
:10020C00C194C182C190C08EC094C082C090C08A7B
:10021C00C098C0961200036EA9EC00F0D00EBDEC95
:10022C0000F00350BDEC00F00250BDEC00F0ADEC62
:10023C0000F0120085EC04F0B9EC00F002EC01F0D7
:10024C00D2EC00F000EC02F0BAEC01F02FEC01F073
:10025C001200948E949CAC9CAC8AAC98AC84AB8E03
:10026C00AB88AB9CB896810EAF6E9D889E989D8A8C
:10027C009E9A120006500802F3CF0AF0F4CF0BF04E
:10028C0006500902F3500B2607500802F3500B26B8
:10029C000AC006F00BC007F01200026EA9EC00F0C9
:1002AC00D00EBDEC00F00250BDEC00F0B5EC00F04F
:1002BC00D10EBDEC00F0C3EC00F0036EADEC00F021
:1002CC0003501200026EA9EC00F0A00EBDEC00F081
:1002DC000250BDEC00F0B5EC00F0A10EBDEC00F04E
:1002EC00C3EC00F0036EADEC00F003501200026E94
:1002FC0001B083EF01F086EF01F0828287EF01F00D
:10030C00829202C083FF82848294958E8280829234
:10031C008284829483BE95EF01F097EF01F08EEF0B
:10032C0001F08290959E1200106EA9EC00F0A00EC8
:10033C00BDEC00F01050BDEC00F00D50BDEC00F029
:10034C00ADEC00F00B0E0F6EB80E0E6E0E06D8A0B4
:10035C000F060E2806E10F28D8A4B7EF01F0B9EF6D
:10036C0001F0ACEF01F01200840E68EC01F07A0A97
:10037C00D8A4C3EF01F0C5EF01F0DBEF01F0800E64
:10038C0068EC01F00001CE6F810E68EC01F0000109
:10039C00CF6F820E68EC01F00001D06F830E68EC19
:1003AC0001F00001D16F000ED26F1200086E08C070
:1003BC0003F0D8900336D8900336C250030B0310C9
:1003CC00C26EC282C2B2EDEF01F0EFEF01F0E8EFC6
:1003DC0001F0C4CF03F0030E03160350056E046A3C
:1003EC00C350066E076A04500610016E05500710C4
:1003FC00026E1200000E53EC01F0046E04508009E2
:10040C00026E000E11EC01F0020E53EC01F0046EC2
:10041C000450BF0B026E020E11EC01F0930E026E33
:10042C00070E11EC01F0000E53EC01F0046E0450B9
:0C043C007F0B026E000E11EC01F01200AC
:1004490056696577206C6F67000000000000004462
:100459006F776E6C6F6164206C6F67000000436C8E
:10046900656172206C6F67000000000000536574BD
:100479002074696D65000000000000004368616E2A
:1004890067652070617373776F7264B30E0C6E00C9
:100499000E0D6EC00E0E6E00EC03F000016AAD5831
:1004A900EF02F05AEF02F073EF02F06AAB5FEF026E
:1004B900F061EF02F06BEF02F0F90E0C6E2F0E0DEA
:1004C9006ECC0E0E6E00EC03F073EF02F0F60E0C1C
:1004D9006E2F0E0D6ECC0E0E6E00EC03F01200495D
:1004E9000EF66E040EF76E000EF86E01EE00F010B7
:1004F900EE4BF00900F5CFEEFFE550E150FAE1EAE5
:100509000EF66E010EF76E000EF86E00EEBCF010DE
:10051900EE1AF00900F5CFEEFFE550E150FAE100DF
:10052900EE60F05C0EEE6AE806FDE1000EF86E0082
:1005390001E0EF05F0B5EF02F002C0F6FF03C0F7E6
:10054900FFF86A050EF76403D00800F55005D0F6E8
:10055900CFE9FFF7CFEAFFEF50E9EC00F0024A03D9
:100569002A02C0F6FF03C0F7FFF86A050EF7640315
:10057900D00800F55005D0F6CFE9FFF7CFEAFFEF35
:10058900500009D8A4CBEF02F0CDEF02F0A1EF02A1
:10059900F0120003500410D8B4D5EF02F0D7EF02DF
:1005A900F0FBEF02F0010E056EDFEF02F0D89003C9
:1005B900360436052A04AEE4EF02F0E6EF02F0DB7A
:1005C900EF02F00350015C04500258D8A0EFEF028B
:1005D900F0F1EF02F0F5EF02F00350015E04500272
:1005E9005AD89004320332052EE6EF02F001C00119
:1005F900F002C002F01200000E016E0E507DEC01F7
:10060900F01DEF03F0010E016E0CC0F6FF0DC0F7EF
:10061900FFF86A050EF76403D00800F55005D0F617
:10062900CFE9FFF7CFEAFFEF507DEC01F00C4A0D5F
:100639002A0CC0F6FF0DC0F7FFF86A050EF7640330
:10064900D00800F55005D0F6CFE9FFF7CFEAFFEF64
:10065900500009D8A433EF03F035EF03F007EF0397
:10066900F01200000E0B6E000E0A6E08500910D829
:10067900B441EF03F043EF03F06BEF03F0010E0C0D
:100689006E4BEF03F0D890083609360C2A09AE50A4
:10069900EF03F052EF03F047EF03F0D8900A360B5F
:1006A900360850065C09500758D8A05EEF03F06081
:1006B900EF03F065EF03F00850065E0950075A0A88
:1006C90080D890093208320C2E52EF03F00AC00686
:1006D900F00BC007F01200016E0150D8A477EF03A8
:1006E900F079EF03F07DEF03F05CEC05F0ABEF037D
:1006F900F00104D8A483EF03F085EF03F0AAEF0318
:10070900F05CEC05F00001A36FA329D8B48FEF03C7
:10071900F091EF03F09EEF03F0D551D8B497EF03B2
:10072900F099EF03F09EEF03F0000ED56FA351ABE4
:10073900EF03F0A329D8A4A4EF03F0A6EF03F0AACE
:10074900EF03F0010ED56FAAEF03F0FF0E120002BE
:100759000E53EC01F000016A6F010E53EC01F00039
:10076900016B6F000E53EC01F000016C6F6AADC0B4
:10077900EF03F0C2EF03F0CDEF03F06A390F0B017D
:100789000B300FB36F6A510F0B300FB46FD6EF03F5
:10079900F06A390F0B030B300FB36F6A510F0B302F
:1007A9000FB46F3A0EB56F6B390F0B0F0B300FB6D5
:1007B9006F6B510F0B300FB76F3A0EB86F6C390F63
:1007C9000B0F0B300FB96F6C510F0B300FBA6F0055
:1007D9000EBB6F1200000183518411D8A4F7EF03F7
:1007E900F0F9EF03F00BEF04F0000E846F010E83B4
:1007F9006F000E016E010E7DEC01F0000E00018804
:100809006F000E876F000E986F030E976F975198C0
:1008190011D8B412EF04F014EF04F01EEF04F099AC
:100829000E0C6E2F0E0D6E800E0E6E00EC03F03561
:10083900EF04F097519811D8A425EF04F027EF049D
:10084900F035EF04F0000E016E010E7DEC01F000B1
:100859000E0001A26F020EA16F000E846F000E83BD
:100869006F12005CEC05F0056E000E076E000E06B7
:100879006E0528D8B443EF04F045EF04F068EF049F
:10088900F05EEF04F00650036E0750046E064A0747
:100899002A810E035C3E0E0458D8A056EF04F05886
:1008A900EF04F05EEF04F001C0D9FF02C0DAFF01E6
:1008B9000EDF6E5CEC05F00518D8B466EF04F0683D
:1008C900EF04F047EF04F006500710D8B46FEF04B7
:1008D900F071EF04F083EF04F0800E065C3E0E0722
:1008E90058D8B07AEF04F07CEF04F083EF04F001FC
:1008F900C0D9FF02C0DAFFDF6A83EF04F0055012A6
:1009090000000E956E9450F80B946E8290C30E03FE
:100919006ECD0EE82EFED7032EFCD700F0000E0197
:100929006E330E7DEC01F01B0E036E9E0EE82EFE5B
:10093900D7032EFCD700D0000E016E330E7DEC01DB
:10094900F0A60EE82EFED700D0000E016E330E7D04
:10095900EC01F000D000D000F0000E016E020E7D17
:10096900EC01F0A60EE82EFED700D0000E016E387D
:100979000E7DEC01F0A60EE82EFED700D0000E0188
:100989006E010E7DEC01F0040E036E3E0EE82EFEA4
:10099900D7032EFCD7000E016E0C0E7DEC01F0A6DC
:1009A9000EE82EFED700D012002A342B34316E31D6
:1009B90050D8A4E2EF04F0E4EF04F0EEEF04F00005
:1009C9000E286E000E296E000E2A6E000E2B6E5B2D
:1009D900EF05F028C02CF029C02DF02AC02EF02BED
:1009E900C02FF0200EFEEF04F0D8902F322E322DBA
:1009F900322C32E82EF9EF04F02C50306E2A8EFF9B
:100A09000E2816FF0E2916FF0E2A16000E2B169613
:100A19000E315E31BE15EF05F013EF05F02BEF0532
:100A2900F03150800A970FD8B01DEF05F01FEF0580
:100A3900F021EF05F0E4EF04F0D8902B322A3229A7
:100A4900322832313E21EF05F043EF05F01F0E3118
:100A59006431EF05F033EF05F03BEF05F0E4EF0407
:100A6900F0D890283629362A362B3631063150D817
:100A7900A441EF05F043EF05F035EF05F03050D80C
:100A8900B449EF05F04BEF05F053EF05F02B1E2AA3
:100A99001E291E286C000E29222A222B2228C02852
:100AA900F029C029F02AC02AF02BC02BF0120081AE
:100AB9009A818E818C81B264EF05F066EF05F06949
:100AC900EF05F0010EDFEF05F081B46EEF05F07070
:100AD900EF05F073EF05F0040EDFEF05F081B6784E
:100AE900EF05F07AEF05F07DEF05F0070EDFEF0572
:100AF900F081B882EF05F084EF05F087EF05F00A81
:100B09000EDFEF05F0819C818E818A81B28FEF051E
:100B1900F091EF05F094EF05F0020EDFEF05F0819B
:100B2900B499EF05F09BEF05F09EEF05F0050EDF98
:100B3900EF05F081B6A3EF05F0A5EF05F0A8EF05E5
:100B4900F0080EDFEF05F081B8ADEF05F0AFEF0566
:100B5900F0B2EF05F00B0EDFEF05F0819E819E816B
:100B69008C818A81B2BBEF05F0BDEF05F0C0EF05BE
:100B7900F0030EDFEF05F081B4C5EF05F0C7EF050F
:100B8900F0CAEF05F0060EDFEF05F081B6CFEF05ED
:100B9900F0D1EF05F0D4EF05F0090EDFEF05F08194
:100BA900B8D9EF05F0DBEF05F0DEEF05F00C0EDF4D
:100BB900EF05F0FF0E120020EC01F0000E5E6E0052
:100BC9000E5D6E000E5C6E5C4A5D2AE90E5C1807CC
:100BD900E1030E5D18D8A4F4EF05F0F6EF05F00374
:100BE900EF06F0000E5D6E000E5C6E00017F1F8047
:100BF9001F9D07D8A09E079707D8A09807020E0047
:100C090001A119A211D8B40CEF06F00EEF06F01EDF
:100C1900EF06F0030EA119A211D8B416EF06F018C9
:100C2900EF06F01EEF06F0010E70EC03F05F6E2583
:100C3900EF06F05E0E016E000E026E36EC04F05FF8
:100C49006E0001A151A211D8A42DEF06F02FEF06D5
:100C5900F034EF06F05F5074EC09F0E8EF05F0A10D
:100C690005A211D8A43BEF06F03DEF06F042EF06CE
:100C7900F05F50F9EC0DF0E8EF05F0020EA119A2B2
:100C890011D8A44AEF06F04CEF06F053EF06F05ED8
:100C9900C00FF05F5074EC08F0E8EF05F0030EA107
:100CA90019A211D8A45BEF06F05DEF06F0E8EF0595
:100CB900F09F51A011D8A464EF06F066EF06F06D1D
:100CC900EF06F05EC00FF05F50D1EC11F0E8EF05D0
:100CD900F09F05A011D8A474EF06F076EF06F07A1C
:100CE900EF06F07FEC0AF0E8EF05F0020E9F19A07D
:100CF90011D8A482EF06F084EF06F08AEF06F0EF30
:100D0900EC03F088EC07F0E8EF05F0030E9F19A05B
:100D190011D8A492EF06F094EF06F09BEF06F05E6F
:100D2900C013F05F50E0EC13F0E8EF05F0040E9FFC
:100D390019A011D8A4A3EF06F0A5EF06F0AAEF06B3
:100D4900F05F50D6EC0FF0E8EF05F0E8EF05F000A2
:100D5900EF00F0096E0950D8B4B5EF06F0B7EF0609
:100D6900F0D9EF06F004BEBEEF06F0BCEF06F0D9ED
:100D7900EF06F001C005F002C006F003C007F00459
:100D8900C008F0051E061E071E081E052A000E06CD
:100D9900220722082205C00BF006C00CF007C00D7F
:100DA900F008C00EF0E1EF06F001C00BF002C00C34
:100DB900F003C00DF004C00EF0015002100310043E
:100DC90010D8A4EAEF06F0ECEF06F0F6EF06F00013
:100DD9000E016E000E026E000E036E000E046E8789
:100DE900EF07F0960E0A6E00EF07F00A2AD8900E68
:100DF900320D320C320B32000E0B14056E000E0C44
:100E090014066E000E0D14076EFE0E0E14086E0504
:100E190050061007100810D8A415EF07F017EF07B0
:100E2900F0FAEF06F025EF07F00A2A010E0B26006B
:100E39000E0C220D220E22D8900E320D320C320BDE
:100E490032000E0B14056E000E0C14066E000E0D0A
:100E590014076EFF0E0E14086E05500610071008D1
:100E690010D8A43AEF07F03CEF07F019EF07F04468
:100E7900EF07F00A06D8900B360C360D360E360DF4
:100E8900BE49EF07F04BEF07F053EF07F0020E0AE8
:100E99006051EF07F053EF07F03EEF07F00AB05843
:100EA900EF07F05AEF07F05BEF07F00D9ED8900AB5
:100EB900320AC005F0066A076A086A05C008F00721
:100EC9006A066A056A05500B1206500C1207500D86
:100ED9001208500E120950D8B475EF07F077EF07D2
:100EE900F07FEF07F004BE7EEF07F07CEF07F07F9D
:100EF900EF07F00E8E0BC001F00CC002F00DC0031D
:100F0900F00EC004F01200000E126E000E116EB346
:100F19000E1124D96E000E1220DA6EDF500D6E8983
:100F2900C006F08AC007F0000E096E0C0E086E406C
:100F3900EC01F006C001F007C002F0000E046E7863
:100F49000E036ECEEC02F0015011249AEC01F0115F
:100F59004A122A12BEBAEF07F0125009E1080E111F
:100F69005CD8A0BAEF07F0BCEF07F08CEF07F0D818
:100F79009000019B35D96E9C35DA6EBC0ED92600DE
:100F89000EDA22DF500D6E89C006F08AC007F00024
:100F99000E096E0C0E086E40EC01F006C001F00758
:100FA900C002F0000E046E780E036ECEEC02F00162
:100FB9005011249AEC01F0114A122AD89000019B91
:100FC90035D96E9C35DA6EBD0ED926000EDA22DFD0
:100FD900500D6E89C006F08AC007F0000E096E0C2C
:100FE9000E086E40EC01F006C001F007C002F000E7
:100FF9000E046E780E036ECEEC02F0015011249AA5
:10100900EC01F0114A122A99C006F09AC007F000C3
:101019000E096E0A0E086E36EC03F00650300F0DFD
:101029006E89C006F08AC007F0000E096E0C0E0822
:101039006E40EC01F006C001F007C002F0000E049A
:101049006E780E036ECEEC02F0015011249AEC0179
:10105900F0114A122A99C001F09AC002F0000E0458
:101069006E0A0E036ECEEC02F00150300F0D6E8940
:10107900C006F08AC007F0000E096E0C0E086E401B
:10108900EC01F006C001F007C002F0000E046E7812
:101099000E036ECEEC02F0015011249AEC01F0011E
:1010A9000E00018925016E000E8A21026E000E04D0
:1010B9006E0A0E036ECEEC02F001C089F002C08AFE
:1010C900F00001885107E10A0E875DD8B06FEF087B
:1010D900F071EF08F073EF08F0874B882B12005B73
:1010E9006E21EE00F010EE10F04A0EDBCFE3FFE8C0
:1010F90006FCE28DC006F08EC007F0000E096E0FE7
:101109000E086E40EC01F0100E06240C6E000E075E
:10111900200D6E810E0E6E00EC03F08DC006F08E70
:10112900C007F0000E096E0F0E086E40EC01F00FBB
:101139000E0626000E0722100E06240C6E000E075E
:10114900200D6EC10E0E6E00EC03F000018B518C68
:1011590011D8A4B2EF08F0B4EF08F0BBEF08F080A3
:101169000E0D6E2A0EDDEC00F0C0EF08F0C00E0D7A
:101179006E2A0EDDEC00F00C0E5B18D8A4C7EF0840
:10118900F0C9EF08F011EF09F00F50D8A4CFEF081C
:10119900F0D1EF08F0F5EF08F000018B518C11D870
:1011A900A4D9EF08F0DBEF08F0E1EF08F0000E8CAE
:1011B9006F010E8B6FEEEF08F08E5107E1030E8D74
:1011C9005DD8B0EAEF08F0ECEF08F0EEEF08F08D2B
:1011D9004B8E2B000E016E010E7DEC01F073EF09B1
:1011E900F00F04D8A4FBEF08F0FDEF08F073EF0946
:1011F900F0000E016E010E7DEC01F0000E00018E73
:101209006F000E8D6F000E8C6F000E8B6F000EA29B
:101219006F000EA16F73EF09F00B0E5B18D8A418BD
:10122900EF09F01AEF09F073EF09F00F50D8A42075
:10123900EF09F022EF09F045EF09F000018B058C69
:1012490011D8A42AEF09F02CEF09F032EF09F000C8
:101259000E8C6F000E8B6F3EEF09F08D518E11D8F9
:10126900B439EF09F03BEF09F03EEF09F08D07D8EB
:10127900A08E07000E016E010E7DEC01F073EF09DF
:10128900F00F04D8A44BEF09F04DEF09F073EF0903
:10129900F0000E016E010E7DEC01F0000E0001A2BE
:1012A9006F030EA16F8B518D259F6F8C518E21A0DD
:1012B9006F030E9F19A011D8A465EF09F067EF0914
:1012C900F06BEF09F0000E846F000E836F000E8E35
:1012D9006F000E8D6F000E8C6F000E8B6F12003435
:1012E9006E020E3418D8A47CEF09F07EEF09F0A342
:1012F900EF09F0000173057411D8A486EF09F0888D
:10130900EF09F094EF09F0000E9C6F010E9B6F003E
:101319000E746F000E736F88EC07F0EEEF09F09C06
:101329005107E1070E9B5DD8B09DEF09F09FEF09CA
:10133900F0EEEF09F09B4B9C2B90EF09F0030E3474
:1013490018D8A4AAEF09F0ACEF09F0D1EF09F00021
:101359000173057411D8A4B4EF09F0B6EF09F0B818
:10136900EF09F088EF09F09C5109E1020E9B5DD865
:10137900A0C1EF09F0C3EF09F0EEEF09F0730574AE
:1013890011D8B4CAEF09F0CCEF09F0EEEF09F09BE0
:1013990007D8A09C0790EF09F03404D8A4D7EF0927
:1013A900F0D9EF09F0EEEF09F0000E0001746F01BA
:1013B9000E736F080E9B199C11D8B4E6EF09F0E87B
:1013C900EF09F0EEEF09F0000E9C6F080E9B6F908D
:1013D900EF09F0DB0E0C6E2E0E0D6E800E0E6E00F8
:1013E900EC03F0ACEC03F04AEC02F0CA0E0D6ED837
:1013F9009000019B35D96E9C35DA6EBC0ED926005A
:101409000EDA22DF50DDEC00F0CB0E0D6ED8900025
:10141900019B35D96E9C35DA6EBD0ED926000EDAE0
:1014290022DF50DDEC00F0040EDCEC01F001C032EB
:10143900F002C033F0AE0E136E470E146E250E1572
:101449006E410E166E32C001F033C002F0036A0419
:101459006A000EAEEC06F001C00FF002C010F003F6
:10146900C011F004C012F02CEC0CF00FC028F010E1
:10147900C029F011C02AF012C02BF0D9EC04F028D1
:10148900C099F029C09AF0CE0E0D6E99C006F09A57
:10149900C007F0000E096E0A0E086E36EC03F0065E
:1014A90050300FDDEC00F0CF0E0D6E99C001F09AAF
:1014B900C002F0000E046E0A0E036ECEEC02F001BB
:1014C90050300FDDEC00F0000E0001966F010E9513
:1014D9006F000E986F090E976F0B0E3418D8A47809
:1014E900EF0AF07AEF0AF07EEF0AF0000EA26F0120
:1014F9000EA16F1200000183518411D8A487EF0A4D
:10150900F089EF0AF001EF0CF0B70E026E2E0E0310
:101519006E9FEC02F0000E146E000E136EE8EF0BD6
:10152900F0000E166E000E156E000E046E0A0E0304
:101539006E13500001895D0F6E14508A59106E099F
:101549000E0F24016E000E1020026ECEEC02F00187
:10155900C006F002C007F0000E096E0C0E086E40BE
:10156900EC01F006C011F007C012F0A40E1524D941
:101579006E000E1620DA6E11C001F012C002F000E2
:101589000E046E780E036ECEEC02F001501524683D
:10159900EC01F0DF6E154A162A16BEDDEF0AF016C9
:1015A9005009E1080E155CD8A0DDEF0AF0DFEF0A5B
:1015B900F099EF0AF0A40E1524D96E000E1620DA60
:1015C9006E200EDF6E154A162A000E046E0A0E03EF
:1015D9006E13500001895D0F6E14508A59106E09FF
:1015E9000E0F24016E000E1020026ECEEC02F001E7
:1015F900C006F002C007F0000E096E0C0E086E401E
:10160900EC01F006C011F007C012F0A40E1524D9A0
:101619006E000E1620DA6E11C001F012C002F00041
:101629000E046E780E036ECEEC02F0015015240FF5
:101639006E0F0468EC01F0DF6E154A162A000E04DD
:101649006E0A0E036E13500001895D0F6E14508AE5
:1016590059106E090E0F24016E000E1020026ECE75
:10166900EC02F001C006F002C007F0000E096E0C92
:101679000E086E40EC01F006C011F007C012F0A48C
:101689000E1524D96E000E1620DA6E11C001F01263
:10169900C002F0000E046E780E036ECEEC02F0016B
:1016A9005015240F6E0F0468EC01F0DF6E154A1611
:1016B9002AA40E1524D96E000E1620DA6E200EDF2C
:1016C9006E154A162A000E046E0A0E036E13500098
:1016D90001895D0F6E14508A59106E090E0F24018D
:1016E9006E000E1020026ECEEC02F001C006F00270
:1016F900C007F0000E096E0C0E086E40EC01F006F2
:10170900C011F007C012F0A40E1524D96E000E16F0
:1017190020DA6E11C001F012C002F0000E046E78DA
:101729000E036ECEEC02F001501524FE0F68EC0199
:10173900F0DF6E154A162A000E046E0A0E036E13A8
:10174900500001895D0F6E14508A59106E090E0FF1
:1017590024016E000E1020026ECEEC02F001C006CC
:10176900F002C007F0000E096E0C0E086E40EC0185
:10177900F006C011F007C012F0A40E1524D96E00AE
:101789000E1620DA6E11C001F012C002F0000E042C
:101799006E780E036ECEEC02F001501524FE0F6830
:1017A900EC01F0DF6E000E0001B26FA40E026E00B4
:1017B9000E036E9FEC02F0C70E026E2E0E036E9F93
:1017C900EC02F0134A142A00018751135C88511462
:1017D90058D8A0F2EF0BF0F4EF0BF095EF0AF000F8
:1017E9000E846F010E836F000E986F040E976F00C1
:1017F9000E016E010E7DEC01F0000197519811D890
:10180900B409EF0CF00BEF0CF01DEF0CF00D0E0C02
:101819006E2F0E0D6E800E0E6E00EC03F0B10E0CE5
:101829006E2F0E0D6EC00E0E6E00EC03F02BEF0C3A
:10183900F0000E016E010E7DEC01F0000E00018436
:101849006F000E836F000EA26F020EA16F120012BD
:1018590050800B1F6E12501224266E11AE37EF0CFA
:10186900F039EF0CF03AEF0CF026802650D8B4404E
:10187900EF0CF042EF0CF057EF0CF02628D8A448F3
:10188900EF0CF04AEF0CF052EF0CF0000E0F6E0067
:101899000E106E000E116E000E126E118E000E12D9
:1018A9006E5FEF0CF0000E0F6E000E106E000E1141
:1018B9006E000E126E1650800B1F1A165016242732
:1018C9006E15AE6AEF0CF06CEF0CF06DEF0CF027B3
:1018D900802750D8B473EF0CF075EF0CF08AEF0C39
:1018E900F02728D8A47BEF0CF07DEF0CF085EF0CE6
:1018F900F0000E136E000E146E000E156E000E161B
:101909006E158E000E166E92EF0CF0000E136E001F
:101919000E146E000E156E000E166E13501410156F
:10192900101610D8A49BEF0CF09DEF0CF0B5EF0C3E
:10193900F0000E0F6E000E106E000E116E000E12EA
:101949006E800E11127F0E12121F5012120FC00F4D
:10195900F010C010F011C011F012C012F0F8EF0D24
:10196900F02650D8A4BBEF0CF0BDEF0CF0C7EF0C7C
:10197900F0000E0F6E000E106E000E116E000E12AA
:101989006EF8EF0DF0275026C017F0186A175E00A1
:101999000E185A7F0E1724206E000E1820216E0F84
:1019A900C01BF010C01CF011C01DF012C01EF000C9
:1019B9000E0F6E000E106E000E116E000E126E00EC
:1019C9000E226E000E236E000E246E000E256E0090
:1019D9000E276E28EF0DF02750D8B4F6EF0CF0F86B
:1019E900EF0CF00FEF0DF0D8901B361C361D361E8C
:1019F90036D8900F3610361136123625AE07EF0D50
:101A0900F009EF0DF00AEF0DF00F80D89022362380
:101A1900362436253613501B5C14501C5815501D9E
:101A29005816501E58D8A01CEF0DF01EEF0DF027C8
:101A3900EF0DF0258C13501B5E14501C5A15501DC8
:101A49005A16501E5A272A190E27642EEF0DF03008
:101A5900EF0DF0F0EF0CF01B501C101D101E10D8EC
:101A6900B439EF0DF03BEF0DF053EF0DF022805339
:101A7900EF0DF0D8900F3610361136123625AE48D4
:101A8900EF0DF04AEF0DF04BEF0DF00F80D89022DB
:101A9900362336243625362006D8A0210611AE581D
:101AA900EF0DF05AEF0DF03EEF0DF0000E276E2509
:101AB900AE61EF0DF063EF0DF087EF0DF0FF0E2231
:101AC90014176EFF0E2314186EFF0E2414196E7F5F
:101AD9000E25141A6E1750181019101A10D8B47848
:101AE900EF0DF07AEF0DF07EEF0DF0010E276E8706
:101AF900EF0DF00FA083EF0DF085EF0DF087EF0DDF
:101B0900F07AEF0DF02750D8B48DEF0DF08FEF0D6F
:101B1900F0B3EF0DF0010E0F26000E102211221264
:101B29002212A09AEF0DF09CEF0DF0B3EF0DF00F1C
:101B3900C017F010C018F011C019F012C01AF01A2D
:101B4900341A3219321832173217C00FF018C01070
:101B5900F019C011F01AC012F0204A212A21BEBE84
:101B6900EF0DF0215008E12028D8A0BEEF0DF0C0FC
:101B7900EF0DF0CBEF0DF0000E216E2068000E0F77
:101B89006E000E106E000E116E000E126E21BED880
:101B9900EF0DF0215006E12004D8B0D6EF0DF0D8B2
:101BA900EF0DF0E6EF0DF0000E216E000E206E0035
:101BB9000E0F6E000E106E000E116E000E126E00EA
:101BC9000E1F6E20C026F026A0EDEF0DF0EFEF0DF1
:101BD900F0F2EF0DF0118EF3EF0DF0119ED8902673
:101BE90030126EA9EF0CF01200166E000171057229
:101BF90011D8A402EF0EF004EF0EF06CEF0EF09185
:101C0900059211D8A40BEF0EF00DEF0EF037EF0E81
:101C1900F03A0E0C6E2F0E0D6E800E0E6E00EC0358
:101C2900F0EC0E0C6E2F0E0D6EC00E0E6E00EC0356
:101C3900F0000197519811D8A425EF0EF027EF0E67
:101C4900F0D5EF0FF0000E016E010E7DEC01F000F2
:101C59000E0001A26F020EA16F000E726F000E71CD
:101C69006FD5EF0FF091519211D8A43EEF0EF040CD
:101C7900EF0EF06CEF0EF02B0E0C6E2F0E0D6E802A
:101C89000E0E6E00EC03F0FD0E0C6E2E0E0D6EC0E6
:101C99000E0E6E00EC03F0CF0E0D6E0001D3513025
:101CA9000FDDEC00F0000197519811D8A45FEF0EF9
:101CB900F061EF0EF0D5EF0FF0000E726F000E71AC
:101CC9006F000E016E010E7DEC01F0D5EF0FF0975C
:101CD900059811D8A473EF0EF075EF0EF084EF0E8E
:101CE900F0000EA26F000EA16F000E946F000E930C
:101CF9006F000E016E010E7DEC01F0D5EF0FF0D3F0
:101D090051D411D8A48BEF0EF08DEF0EF0F8EF0E31
:101D1900F07F0E0C6E2F0E0D6E800E0E6E00EC0312
:101D2900F0C60E0C6E2F0E0D6EC00E0E6E00EC037B
:101D3900F0C90E0D6E9DC006F09EC007F0000E0999
:101D49006E640E086E36EC03F00650300FDDEC00C1
:101D5900F0CA0E0D6E000E046E640E036E9DC00176
:101D6900F09EC002F0CEEC02F001C006F002C007FE
:101D7900F0000E096E0A0E086E36EC03F0065030BC
:101D89000FDDEC00F0CB0E0D6E9DC001F09EC00280
:101D9900F0000E046E0A0E036ECEEC02F001503014
:101DA9000FDDEC00F0F10E0C6E2F0E0D6ECC0E0E49
:101DB9006E00EC03F000019D519E11D8A4E7EF0ECF
:101DC900F0E9EF0EF0D5EF0FF0000ED46F030ED34C
:101DD9006F000EA26F000EA16F000E016E010E7D45
:101DE900EC01F0D5EF0FF095059611D8A4FFEF0E91
:101DF900F001EF0FF00CEF0FF0000E966F000E954B
:101E09006F000E016E010E7DEC01F0000E166E00E2
:101E190001945107E1040E935DD8B016EF0FF01845
:101E2900EF0FF072EF0FF01C0E0C6E2F0E0D6E807F
:101E39000E0E6E00EC03F000019DB126EF0FF028A5
:101E4900EF0FF030EF0FF09351C00F0D6E5F0EDD05
:101E5900EC00F036EF0FF09351C00F0D6E200EDD40
:101E6900EC00F00B0E1618D8A43DEF0FF03FEF0F62
:101E7900F057EF0FF000019351C00F0D6E2A0EDDE0
:101E8900EC00F0110E00019325D96E000E9421DAB1
:101E99006E310EDF6E934B942B000E986F090E97DF
:101EA9006FD5EF0FF00C0E1618D8A45EEF0FF06087
:101EB900EF0FF0D5EF0FF000019351C00F0D6E2A0F
:101EC9000EDDEC00F0110E00019325D96E000E9481
:101ED90021DA6E300EDF6E4FEF0FF0945109E104F5
:101EE9000E935DD8A07BEF0FF07DEF0FF0D5EF0FCC
:101EF900F0000E946F000E936F000E926F010E9119
:101F09006F000E156E000E186E000E176E110E176B
:101F190024D96E000E1820DA6ECE0E1724E16E0059
:101F29000E1820E26EDE50E618D8B49EEF0FF0A02E
:101F3900EF0FF0B7EF0FF00001D307D8A0D407D304
:101F490051D411D8A4ABEF0FF0ADEF0FF0B1EF0FF3
:101F5900F0000E9E6F780E9D6F000E926F000E912D
:101F69006FC7EF0FF0174A182A18BEC5EF0FF01800
:101F79005009E1040E175CD8A0C5EF0FF0C7EF0FA9
:101F8900F08BEF0FF0000E0001726F010E716F0000
:101F99000E986F020E976F000E016E010E7DEC0117
:101FA900F01200136E000175057611D8A4DFEF0F4A
:101FB900F0E1EF0FF015EF10F0570E0C6E2F0E0D2C
:101FC9006E800E0E6E00EC03F0D00E0C6E2F0E0D0F
:101FD9006EC00E0E6E00EC03F0000197519811D8F7
:101FE900A4F9EF0FF0FBEF0FF040EF10F0000E0136
:101FF9006E010E7DEC01F0000E0001A26F020EA130
:102009006F000E866F000E856F000E946F000E93A1
:102019006F000E766F000E756FD0EF11F0D0EF11D3
:10202900F0020E75197611D8A41DEF10F01FEF10EC
:10203900F040EF10F0EC0E0C6E2E0E0D6E800E0EB1
:102049006E00EC03F08C0E0C6E2F0E0D6EC00E0E92
:102059006E00EC03F0000197519811D8A437EF10E6
:10206900F039EF10F040EF10F0000E016E010E7D17
:10207900EC01F000EF10F085518611D8A447EF105C
:10208900F049EF10F0CBEF10F0945107E1040E93F3
:102099005DD8B052EF10F054EF10F0AAEF10F049EC
:1020A9000E0C6E2F0E0D6E800E0E6E00EC03F000FE
:1020B900019DB162EF10F064EF10F06CEF10F09336
:1020C90051C00F0D6E5F0EDDEC00F072EF10F09352
:1020D90051C00F0D6E200EDDEC00F00B0E1318D859
:1020E900A479EF10F07BEF10F08FEF10F00001935F
:1020F90051C00F0D6E2A0EDDEC00F0650E00019344
:1021090025D96E000E9421DA6E310EDF6E934B9451
:102119002BD0EF11F00C0E1318D8A496EF10F098ED
:10212900EF10F013EF10F000019351C00F0D6E2A5C
:102139000EDDEC00F0650E00019325D96E000E94BA
:1021490021DA6E300EDF6E8BEF10F0040E931994C6
:1021590011D8A4B2EF10F0B4EF10F0D0EF11F000E5
:102169000E016E010E7DEC01F0650E00019325D97B
:102179006E000E9421DA6EDF6A000E946F000E93E2
:102189006F000E866F010E856FD0EF11F085058601
:1021990011D8A4D2EF10F0D4EF10F04EEF11F09453
:1021A9005107E1040E935DD8B0DDEF10F0DFEF10B9
:1021B900F033EF11F0A50E0C6E2F0E0D6E800E0E82
:1021C9006E00EC03F000019DB1EDEF10F0EFEF10A0
:1021D900F0F7EF10F09351C00F0D6E5F0EDDEC00BC
:1021E900F0FDEF10F09351C00F0D6E200EDDEC00E5
:1021F900F00B0E1318D8A404EF11F006EF11F01824
:10220900EF11F000019351C00F0D6E2A0EDDEC00A5
:10221900F0600E00019325D96E000E9421DA6E311B
:102229000EDF6E8BEF10F00C0E1318D8A41FEF11F0
:10223900F021EF11F013EF10F000019351C00F0DD1
:102249006E2A0EDDEC00F0600E00019325D96E00B8
:102259000E9421DA6E300EDF6E8BEF10F0040E93C0
:10226900199411D8A43BEF11F03DEF11F0D0EF1103
:10227900F0600E9325D96E000E9421DA6EDF6A00A4
:102289000E946F000E936F000E866F020E856FD04D
:10229900EF11F0020E85198611D8A456EF11F058E6
:1022A900EF11F0D0EF11F0000E156E000E146E60F4
:1022B9000E1424D96E000E1520DA6E650E1424E171
:1022C9006E000E1520E26EDE50E618D8B46FEF11DD
:1022D900F071EF11F07CEF11F0000E0001766F0143
:1022E9000E756F000E986F020E976FD0EF11F014F4
:1022F9004A152A15BE8AEF11F0155009E1040E148A
:102309005CD8A08AEF11F08CEF11F05CEF11F000AE
:102319000E176E000E166E600E1624D96E000E177B
:1023290020DA6ECE0E1624E16E000E1720E26EDF63
:10233900CFE7FF164A172A17BEACEF11F01750095D
:10234900E1040E165CD8A0ACEF11F0AEEF11F090DD
:10235900EF11F065C00DF0800E9AEC01F066C00D2A
:10236900F0810E9AEC01F067C00DF0820E9AEC0133
:10237900F068C00DF0830E9AEC01F07A0E0D6E84B0
:102389000E9AEC01F0000E0001766F020E756F00D7
:102399000E986F020E976F1200126E00016D056E96
:1023A90011D8A4DAEF11F0DCEF11F0FFEF11F0BC56
:1023B9000E0C6E2F0E0D6E800E0E6E00EC03F000EB
:1023C9000197519811D8A4ECEF11F0EEEF11F0DF5D
:1023D900EF13F0000EA26F020EA16F000E6E6F00D8
:1023E9000E6D6F000E016E010E7DEC01F0DFEF1333
:1023F900F0DFEF13F087518811D8A406EF12F00827
:10240900EF12F017EF12F0000E6E6F010E6D6F00F4
:102419000E986F020E976F000E016E010E7DEC0192
:10242900F0DFEF13F083518411D8A41EEF12F020CE
:10243900EF12F02EEF12F0000E016E010E7DEC018D
:10244900F0000E0001786F000E776F000E846F01A7
:102459000E836FCA0E0C6E2E0E0D6E800E0E6E0060
:10246900EC03F0000E166E000E156E000E046E0AD7
:102479000E036E00017751895D106E78518A5911EA
:102489006E090E1024016E000E1120026ECEEC02B0
:10249900F001C006F002C007F0000E096E0C0E082C
:1024A9006E40EC01F006C013F007C014F0A40E153D
:1024B90024D96E000E1620DA6E13C001F014C00282
:1024C900F0000E046E780E036ECEEC02F00150158A
:1024D9002468EC01F0DF6E154A162A16BE7EEF124B
:1024E900F0165009E1080E155CD8A07EEF12F080B5
:1024F900EF12F03AEF12F0A40E1524D96E000E1661
:1025090020DA6E200EDF6E154A162A000E046E0AB6
:102519000E036E00017751895D106E78518A591149
:102529006E090E1024016E000E1120026ECEEC020F
:10253900F001C006F002C007F0000E096E0C0E088B
:102549006E40EC01F006C013F007C014F0A40E159C
:1025590024D96E000E1620DA6E13C001F014C002E1
:10256900F0000E046E780E036ECEEC02F0015015E9
:1025790024106E100468EC01F0DF6E154A162A006B
:102589000E046E0A0E036E00017751895D106E7894
:10259900518A59116E090E1024016E000E11200284
:1025A9006ECEEC02F001C006F002C007F0000E0981
:1025B9006E0C0E086E40EC01F006C013F007C01453
:1025C900F0A40E1524D96E000E1620DA6E13C00180
:1025D900F014C002F0000E046E780E036ECEEC0209
:1025E900F001501524106E100468EC01F0DF6E152F
:1025F9004A162AA40E1524D96E000E1620DA6E206A
:102609000EDF6E154A162A000E046E0A0E036E00BE
:10261900017751895D106E78518A59116E090E1032
:1026290024016E000E1120026ECEEC02F001C006EC
:10263900F002C007F0000E096E0C0E086E40EC01A6
:10264900F006C013F007C014F0A40E1524D96E00CB
:102659000E1620DA6E13C001F014C002F0000E0449
:102669006E780E036ECEEC02F001501524FE0F6851
:10267900EC01F0DF6E154A162A000E046E0A0E03ED
:102689006E00017751895D106E78518A59116E0972
:102699000E1024016E000E1120026ECEEC02F00124
:1026A900C006F002C007F0000E096E0C0E086E405D
:1026B900EC01F006C013F007C014F0A40E1524D9DC
:1026C9006E000E1620DA6E13C001F014C002F0007D
:1026D9000E046E780E036ECEEC02F001501524FE46
:1026E9000F68EC01F0DF6E000E0001B26FC00E0D35
:1026F9006E7751300FDDEC00F0A40E0C6E000E0D5C
:102709006EC20E0E6E00EC03F00B0E1218D8A490D8
:10271900EF13F092EF13F0A8EF13F0FF0E0001870B
:1027290025106EFF0E8821116E1050775D115078BB
:1027390059D8B0A2EF13F0A4EF13F0A8EF13F07774
:102749004B782BDFEF13F00C0E1218D8A4AFEF1350
:10275900F0B1EF13F0DFEF13F00F50D8A4B7EF1378
:10276900F0B9EF13F0C8EF13F0000177517811D8E1
:10277900B4C1EF13F0C3EF13F0C8EF13F07707D824
:10278900A07807DFEF13F00F04D8A4CEEF13F0D031
:10279900EF13F0FDEF11F0000E0001846F000E83BE
:1027A9006F000E016E010E7DEC01F0000E0001A21A
:1027B9006F020EA16F1200196E00016F057011D81A
:1027C900A4E9EF13F0EBEF13F01DEF14F0650E0C15
:1027D9006E2F0E0D6E800E0E6E00EC03F0720E0C55
:1027E9006E2F0E0D6EC00E0E6E00EC03F0000E0083
:1027F90001846F000E836F97519811D8A407EF14C5
:10280900F009EF14F05AEF17F0000E016E010E7D7A
:10281900EC01F0000E0001A26F020EA16F000E7014
:102829006F000E6F6F88EC07F05AEF17F05AEF1729
:10283900F0020E6F197011D8A425EF14F027EF14C8
:10284900F055EF14F0E30E0C6E2F0E0D6E800E0E88
:102859006E00EC03F0F50E0C6E2E0E0D6EC00E0E12
:102869006E00EC03F0000E0001846F000E836F9779
:10287900519811D8A443EF14F045EF14F05AEF170B
:10288900F0000E016E010E7DEC01F0000E0001A2B8
:102899006F020EA16F000E706F000E6F6F5AEF1767
:1028A900F0DA0E0C6E2F0E0D6E830E0E6E00EC0319
:1028B900F0000183518411D8A465EF14F067EF1477
:1028C900F09BEF14F0B3510A0DF3CF14F0F4CF15C8
:1028D900F0B4511426000E1522F00E1424796FFD60
:1028E9000E15207A6FB6510A0DF3CF14F0F4CF15F7
:1028F900F0B7511426000E1522F00E14247D6FFD39
:102909000E15207E6FB9510A0DF3CF14F0F4CF15CF
:10291900F0BA511426000E1522F00E14247B6FFD17
:102929000E15207C6F000E846F010E836F8151821A
:1029390011D8A4A2EF14F0A4EF14F024EF15F0C4F9
:102949000E0D6E79C001F07AC002F0000E046E0A15
:102959000E036ECEEC02F00150300FDDEC00F0C337
:102969000E0D6E79C006F07AC007F0000E096E0AE6
:102979000E086E36EC03F00650300FDDEC00F0C5A2
:102989000E0D6E3A0EDDEC00F0C70E0D6E7DC00126
:10299900F07EC002F0000E046E0A0E036ECEEC0249
:1029A900F00150300FDDEC00F0C60E0D6E7DC00653
:1029B900F07EC007F0000E096E0A0E086E36EC03B1
:1029C900F00650300FDDEC00F0C80E0D6E3A0EDD4A
:1029D900EC00F000017F518011D8B4F6EF14F0F843
:1029E900EF14F01AEF15F0CA0E0D6E7BC001F07CE2
:1029F900C002F0000E046E0A0E036ECEEC02F00166
:102A090050300FDDEC00F0C90E0D6E7BC006F07C76
:102A1900C007F0000E096E0A0E086E36EC03F006C8
:102A290050300FDDEC00F035EF16F0FC0E0C6E2F78
:102A39000E0D6EC90E0E6E00EC03F035EF16F08127
:102A4900058211D8A42BEF15F02DEF15F0ADEF1578
:102A5900F0C40E0D6E79C001F07AC002F0000E04C8
:102A69006E0A0E036ECEEC02F00150300FDDEC0061
:102A7900F0C30E0D6E79C006F07AC007F0000E099A
:102A89006E0A0E086E36EC03F00650300FDDEC00CE
:102A9900F0C50E0D6E3A0EDDEC00F0CA0E0D6E7B20
:102AA900C001F07CC002F0000E046E0A0E036ECE67
:102AB900EC02F00150300FDDEC00F0C90E0D6E7B19
:102AC900C006F07CC007F0000E096E0A0E086E36CB
:102AD900EC03F00650300FDDEC00F0C80E0D6E3A35
:102AE9000EDDEC00F000017F518011D8B47FEF15A5
:102AF900F081EF15F0A3EF15F0C70E0D6E7DC00143
:102B0900F07EC002F0000E046E0A0E036ECEEC02D7
:102B1900F00150300FDDEC00F0C60E0D6E7DC006E1
:102B2900F07EC007F0000E096E0A0E086E36EC033F
:102B3900F00650300FDDEC00F035EF16F0FC0E0C0E
:102B49006E2F0E0D6EC60E0E6E00EC03F035EF16ED
:102B5900F0020E81198211D8A4B5EF15F0B7EF155F
:102B6900F035EF16F0CA0E0D6E7BC001F07CC00285
:102B7900F0000E046E0A0E036ECEEC02F001503026
:102B89000FDDEC00F0C90E0D6E7BC006F07CC007AE
:102B9900F0000E096E0A0E086E36EC03F00650308E
:102BA9000FDDEC00F0C50E0D6E3A0EDDEC00F0C73E
:102BB9000E0D6E7DC001F07EC002F0000E046E0A9B
:102BC9000E036ECEEC02F00150300FDDEC00F0C6C2
:102BD9000E0D6E7DC006F07EC007F0000E096E0A6C
:102BE9000E086E36EC03F00650300FDDEC00F0C82D
:102BF9000E0D6E3A0EDDEC00F000017F518011D808
:102C0900B409EF16F00BEF16F02DEF16F0C40E0D08
:102C19006E79C001F07AC002F0000E046E0A0E034C
:102C29006ECEEC02F00150300FDDEC00F0C30E0D5A
:102C39006E79C006F07AC007F0000E096E0A0E0818
:102C49006E36EC03F00650300FDDEC00F035EF1670
:102C5900F0FC0E0C6E2F0E0D6EC30E0E6E00EC0303
:102C6900F00B0E1918D8A43CEF16F03EEF16F02021
:102C7900EF17F01350D8A444EF16F046EF16F09969
:102C8900EF16F0000181518211D8A44EEF16F050D1
:102C9900EF16F062EF16F0010E7B25016E000E7C37
:102CA90021026E000E046E3C0E036ECEEC02F001A2
:102CB900C07BF002C07CF05AEF17F081058211D871
:102CC900A469EF16F06BEF16F07DEF16F0010E7D9B
:102CD90025016E000E7E21026E000E046E3C0E036D
:102CE9006ECEEC02F001C07DF002C07EF05AEF1703
:102CF900F0020E81198211D8A485EF16F087EF161C
:102D0900F01BEF14F0010E7925016E000E7A2102F5
:102D19006E000E046E180E036ECEEC02F001C0793F
:102D2900F002C07AF05AEF17F01304D8A49FEF16F7
:102D3900F0A1EF16F05AEF17F079C001F07AC0024E
:102D4900F0000E046E0A0E036ECEEC02F001C01400
:102D5900F002C015F00F0E141679C006F07AC007FC
:102D6900F0000E096E0A0E086E36EC03F00F0E061F
:102D7900160638F00B1410166E7DC001F07EC002E5
:102D8900F0000E046E0A0E036ECEEC02F001C014C0
:102D9900F002C015F00F0E14167DC006F07EC007B4
:102DA900F0000E096E0A0E086E36EC03F00F0E06DF
:102DB900160638F00B1410176E7BC001F07CC002A8
:102DC900F0000E046E0A0E036ECEEC02F001C01480
:102DD900F002C015F00F0E14167BC006F07CC00778
:102DE900F0000E096E0A0E086E36EC03F00F0E069F
:102DF900160638F00B1410186E16C002F0020E11E8
:102E0900EC01F017C002F0010E11EC01F018C0023C
:102E1900F0000E11EC01F0000E0001986F020E9700
:102E29006F000E706F010E6F6F000E016E010E7D47
:102E3900EC01F05AEF17F00C0E1918D8A427EF1768
:102E4900F029EF17F05AEF17F01350D8A42FEF1706
:102E5900F031EF17F044EF17F0010E000181250161
:102E69006E000E8221026E000E046E030E036ECEFA
:102E7900EC02F001C081F002C082F05AEF17F013A2
:102E890004D8A44AEF17F04CEF17F05AEF17F000E7
:102E99000E0001986F020E976F000E706F020E6F91
:102EA9006F000E016E010E7DEC01F012000023206F
:102EB90054494D45202020202045562053500A0DC5
:102EC90000232054494D45202020202045562053D9
:102ED900500054494D452020202045564E5420206D
:102EE90053500050617373776F7264206368616E29
:102EF90067656400417474656D7074204C6566740F
:102F0900202D2000446F776E6C6F6164696E672EA7
:102F19002E2E00454E5445522050415353574F527F
:102F29004400417474656D7074204661696C656410
:102F390000416363657373204772616E7465640051
:102F4900454E544552204E45572050574400506134
:102F59007373776F726420646F65730054696D656C
:102F6900206368616E676564007375636365737375
:102F790066756C6C79005472792061667465722E7D
:102F89002E2E005375636365737366756C6C7900D7
:102F99004C6F6720636C656172656400434F4E46F0
:102FA90049524D2050574400416C6C204576656E5E
:102FB9007473004C4F4720454D5054590052657465
:102FC900727920696E20006E6F74206D6174636878
:102FD9000048483A4D4D3A53530054696D65206E87
:102FE9006F74002A2A2A2A007365637300414D0011
:072FF900504D0020200000F4
:020000040020DA
:08000000FFFFFFFFFFFFFFFF00
:020000040030CA
:0E000000FF071F1FFF8285FF0FC00FE00F409C
:00000001FF
